:020000040000FA
:100000000A128A11FC2F00308A000408840A820731
:100010000034413454342B34433457345134413454
:1000200050340034413454342B3452345334543427
:08003000003441345434003463
:100EF800F00083160313981C822F832F7D2F700810
:100F0800831203139900080083160313990118121A
:100F18008312031398178316031307178717981656
:100F28000800F300F101F201AC2F71087307840087
:100F38000A128A1103200A128A110A128A117C27BE
:100F48000A128A110130F1070318F20A0030F20779
:100F58007108730784000A128A1103200A128A1181
:100F6800003A031DB82FB92F992F08000A128A11C9
:100F780088270A128A1111300A128A1195270A1233
:100F88008A110630F6001330F500AD30F400F40B8A
:100F9800CB2FF50BCB2FF60BCB2FD22F01300A120C
:100FA8008A1195270A128A110630F6001330F500C7
:100FB800AD30F400F40BDE2FF50BDE2FF60BDE2F31
:100FC800E52F0A300A128A1195270A128A1106306B
:100FD800F6001330F500AD30F400F40BF12FF50BEB
:100FE800F12FF60BF12FF82FF82F0A128A1100288B
:080FF80083010A128A11BA2FCD
:02400E00793FF8
:00000001FF
